:100000000C9434000C94AC010C9451000C945100ED
:100010000C9451000C9451000C9451000C9451001C
:100020000C9451000C9451000C9451000C9451000C
:100030000C9451000C9451000C9451000C945100FC
:100040000C9451000C9451000C9451000C945100EC
:100050000C9451000C9451000C9451000C945100DC
:100060000C9451000C94510011241FBECFEFD8E026
:10007000DEBFCDBF11E0A0E0B1E0E2EFFAE002C0E8
:1000800005900D92A230B107D9F721E0A2E0B1E0CE
:1000900001C01D92AA30B207E1F70E949D020C94A4
:1000A00077050C940000F999FECF92BD81BD60BD2B
:1000B000FA9AF99A0895F999FECF92BD81BDFA9AFC
:1000C00080B50895CF93DF93EC010E942C02CE01FE
:1000D0000E940502CE010E940502CE010E94050287
:1000E000CE010E940502CE010E940502CE010E94AF
:1000F0000502CE010E942C02DF91CF910C94510297
:10010000CF93DF93EC010E942C02CE010E940502E6
:10011000CE010E942C02CE010E942C02CE010E9430
:100120000502CE010E942C02CE010E942C02CE01BB
:100130000E942C02DF91CF910C945102CF93DF9358
:10014000EC010E942C02CE010E942C02CE010E94E2
:100150000502CE010E940502CE010E940502CE01D9
:100160000E940502CE010E942C02CE010E940502CF
:10017000DF91CF910C945102CF93DF93EC010E9459
:100180002C02CE010E940502CE010E940502CE0182
:100190000E942C02CE010E940502CE010E9405029F
:1001A000CE010E942C02CE010E940502DF91CF9168
:1001B0000C945102CF93DF93EC010E942C02CE01EC
:1001C0000E940502CE010E942C02CE010E942C0248
:1001D000CE010E940502CE010E942C02CE010E9497
:1001E0000502CE010E940502DF91CF910C945102CD
:1001F000CF93DF93EC010E942C02CE010E940502F6
:10020000CE010E940502CE010E942C02CE010E9466
:100210002C02CE010E940502CE010E940502CE01F1
:100220000E940502DF91CF910C945102CF93DF938E
:10023000EC010E942C02CE010E940502CE010E9418
:100240000502CE010E940502CE010E942C02CE01C1
:100250000E940502CE010E940502CE010E94050205
:10026000DF91CF910C945102CF93DF93EC010E9468
:100270002C02CE010E940502CE010E942C02CE016A
:100280000E942C02CE010E940502CE010E940502AE
:10029000CE010E942C02CE010E942C02DF91CF9150
:1002A0000C945102CF93DF93EC010E942C02CE01FB
:1002B0000E940502CE010E940502CE010E940502A5
:1002C000CE010E940502CE010E940502CE010E94CD
:1002D0000502CE010E940502DF91CF910C945102DC
:1002E000CF93DF93EC010E942C02CE010E94050205
:1002F000CE010E940502CE010E942C02CE010E9476
:100300000502CE010E940502CE010E940502CE0127
:100310000E940502DF91CF910C945102CF93DF939D
:10032000EC010E942C02CE010E942C02CE010E9400
:100330002C02CE010E942C02CE010E942C02CE0182
:100340000E942C02CE010E942C02CE010E942C029F
:10035000DF91CF910C9451021F920F920FB60F9222
:1003600011242F938F939F938091080190910901FD
:10037000019690930901809308012FEF80E792E0A6
:10038000215080409040E1F700C0000081E085B935
:100390002FEF80E792E0215080409040E1F700C0CD
:1003A000000015B89F918F912F910F900FBE0F9065
:1003B0001F901895F8942091800020682093800069
:1003C0002091800021602093800020918000226095
:1003D0002093800020918100286020938100811566
:1003E000944029F48091810084608093810070930F
:1003F000890060938800789408959B01069721F402
:10040000BA01C9010C94DA0108958130910551F4C3
:1004100080E18BB98FE39CE90197F1F700C0000000
:1004200088E10BC00297B9F480E48BB98FE39CE9B3
:100430000197F1F700C0000080E68BB98FE39CE9DB
:100440000197F1F700C000001BB88FE39CE901970A
:10045000F1F700C0000008958130910549F41BB800
:100460008FE39CE90197F1F700C0000088E00AC023
:100470000297B1F41BB88FE39CE90197F1F700C034
:10048000000080E28BB98FE39CE90197F1F700C08F
:1004900000001BB88FE39CE90197F1F700C0000052
:1004A000089580E88BB98FE39CE90197F1F700C0CC
:1004B00000001BB88FE39CE90197F1F700C0000032
:1004C0000895EF92FF920F931F93CF93DF9320E055
:1004D00030E04AE754E40E94AF0320E034E244E70E
:1004E00056E40E94EC040E944804F89410928000A4
:1004F000C1E8D0E0188208E810E0F801E080F1805F
:100500000E9417046E297F29F80171836083888116
:1005100088608883EFE6F0E0808182608083888154
:10052000816088838881846088837894DF91CF910B
:100530001F910F91FF90EF9008958091000190918D
:1005400001010E945B0090E09093090180930801F3
:1005500088EF8AB98FEF84B9F8945A9A809169002C
:100560008160809369008091690082608093690056
:10057000E89A789482E090E00E948E0181E090E019
:100580000E948E01CAE0D0E080910801909109019B
:100590009C01215031092336310508F0CBC0BE0142
:1005A0000E944F059093030180930201709305010F
:1005B000609304016115710509F457C0613071053C
:1005C00021F481E090E00E948000809104019091EC
:1005D0000501029721F481E090E00E949E00809145
:1005E000040190910501039721F481E090E00E94BD
:1005F000BC008091040190910501049721F481E0F1
:1006000090E00E94DA008091040190910501059725
:1006100021F481E090E00E94F80080910401909123
:100620000501069721F481E090E00E941601809177
:10063000040190910501079721F481E090E00E9468
:1006400034018091040190910501089721F481E023
:1006500090E00E9452018091040190910501099758
:1006600021F481E090E00E9470018091020190915C
:100670000301892B21F482E090E00E9462008091C6
:10068000020190910301019721F482E090E00E9421
:1006900080008091020190910301029721F482E091
:1006A00090E00E949E0080910201909103010397C7
:1006B00021F482E090E00E94BC00809102019091C0
:1006C0000301049721F482E090E00E94DA00809117
:1006D000020190910301059721F482E090E00E94CD
:1006E000F8008091020190910301069721F482E0C5
:1006F00090E00E94160180910201909103010797FA
:1007000021F482E090E00E943401809102019091F6
:100710000301089721F482E090E00E945201809149
:10072000020190910301099789F482E090E00E9410
:1007300070010CC0109209011092080182E090E053
:100740000E948E0181E090E00E948E01609108017C
:1007500080910001909101010E94530015CF0CD0AF
:10076000EAC0E2D040F0D9D030F021F45F3F19F078
:10077000A2C051112BC1CEC0EFD098F39923C9F379
:100780005523B1F3951B550BBB27AA276217730797
:10079000840738F09F5F5F4F220F331F441FAA1F4B
:1007A000A9F333D00E2E3AF0E0E830D0915050400B
:1007B000E695001CCAF729D0FE2F27D0660F771FB9
:1007C000881FBB1F261737074807AB07B0E809F09B
:1007D000BB0B802DBF01FF2793585F4F2AF09E3F30
:1007E000510568F068C0F2C05F3FECF3983EDCF35F
:1007F000869577956795B795F7959F5FC9F7880FA9
:10080000911D9695879597F90895E1E0660F771FFA
:10081000881FBB1F621773078407BA0720F0621B8B
:10082000730B840BBA0BEE1F88F7E095089504D084
:100830006894B111CBC0089597D088F09F5790F07D
:10084000B92F9927B751A0F0D1F0660F771F881FF5
:10085000991F1AF0BA95C9F712C0B13081F0B5D01E
:10086000B1E00895B2C0672F782F8827B85F39F0BC
:10087000B93FCCF3869577956795B395D9F73EF454
:1008800090958095709561957F4F8F4F9F4F0895FC
:1008900085D080F09F3740F491110EF097C060E052
:1008A00070E080E89FEB089526F41B16611D711D12
:1008B000811D07C021C097F99F6780E870E060E064
:1008C0000895882371F4772321F09850872B762F91
:1008D00007C0662311F499270DC09051862B70E054
:1008E00060E02AF09A95660F771F881FDAF7880F65
:1008F0009695879597F908959F3F31F0915020F490
:10090000879577956795B795880F911D96958795EB
:1009100097F908959FEF80EC089500240A94161625
:10092000170618060906089500240A9412161306DD
:10093000140605060895092E0394000C11F488236B
:1009400052F0BB0F40F4BF2B11F460FF04C06F5F87
:100950007F4F8F4F9F4F089557FD9058440F551F5D
:1009600059F05F3F71F04795880F97FB991F61F031
:100970009F3F79F087950895121613061406551FA8
:10098000F2CF4695F1DF08C0161617061806991F14
:10099000F1CF86957105610508940895E5DFA0F013
:1009A000BEE7B91788F4BB279F3860F41616B11D4F
:1009B000672F782F8827985FF7CF8695779567956B
:1009C000B11D93959639C8F30895E894BB2766271F
:1009D0007727CB0197F908950BD0ADCF9EDF28F094
:1009E000A3DF18F0952309F066CF94CF1124EECF42
:1009F000B3DFA0F3959FD1F3950F50E0551F629F91
:100A0000F001729FBB27F00DB11D639FAA27F00D67
:100A1000B11DAA1F649F6627B00DA11D661F829F8E
:100A20002227B00DA11D621F739FB00DA11D621F73
:100A3000839FA00D611D221F749F3327A00D611D90
:100A4000231F849F600D211D822F762F6A2F112472
:100A50009F5750408AF0E1F088234AF0EE0FFF1FC5
:100A6000BB1F661F771F881F91505040A9F79E3FFC
:100A7000510570F020CFAACF5F3FECF3983EDCF336
:100A8000869577956795B795F795E7959F5FC1F739
:100A9000FE2B880F911D9695879597F9089597FBE2
:100AA000072E16F4009407D077FD09D00E94630545
:100AB00007FC05D03EF4909581959F4F0895709561
:100AC00061957F4F0895AA1BBB1B51E107C0AA1F68
:100AD000BB1FA617B70710F0A61BB70B881F991FDF
:100AE0005A95A9F780959095BC01CD010895F89489
:020AF000FFCF36
:020AF2000A00F8
:00000001FF
