:100000000C9434000C9451000C9451000C94510049
:100010000C9451000C9451000C9451000C9451001C
:100020000C9451000C9451000C9451000C9451000C
:100030000C9451000C9451000C9451000C945100FC
:100040000C9451000C9451000C9451000C945100EC
:100050000C9451000C9451000C9451000C945100DC
:100060000C9451000C94510011241FBECFEFD8E026
:10007000DEBFCDBF11E0A0E0B1E0ECE5F7E002C0EB
:1000800005900D92A430B107D9F721E0A4E0B1E0CA
:1000900001C01D92A630B207E1F70E94C5010C9481
:1000A000AC030C9400000E9444010E9444010E9491
:1000B00044010E9444010E9444010E9444010E94A4
:1000C00044010E9465010C9485010E9444010E9434
:1000D00044010E9465010E9465010E9444010E9442
:1000E00065010E9465010E9465010C9485010E94D2
:1000F00044010E9465010E9444010E9444010E9443
:1001000044010E9444010E9465010E9444010C9434
:1001100085010E9444010E9444010E9444010E9402
:1001200065010E9444010E9444010E9465010E94F1
:1001300044010C9485010E9444010E9444010E94E4
:1001400065010E9465010E9444010E9465010E94B0
:1001500044010E9444010C9485010E9444010E94C4
:1001600044010E9444010E9465010E9465010E94B1
:1001700044010E9444010E9444010C9485010E94A4
:1001800044010E9444010E9444010E9444010E94D3
:1001900065010E9444010E9444010E9444010C94A4
:1001A00085010E9444010E9444010E9465010E9451
:1001B00065010E9444010E9444010E9465010E9461
:1001C00065010C9485010E9444010E9444010E9433
:1001D00044010E9444010E9444010E9444010E9483
:1001E00044010E9444010C9485010E9444010E9434
:1001F00044010E9444010E9465010E9444010E9442
:1002000044010E9444010E9444010C9485010E9413
:1002100065010E9465010E9465010E9465010E94BE
:1002200065010E9465010E9465010E9465010C94B0
:100230008501F8942091800020682093800020910F
:100240008000216020938000209180002260209314
:1002500080002091810028602093810081159440C6
:1002600029F48091810084608093810070938900DB
:1002700060938800789408959B01069721F4BA0151
:10028000C9010C941901089584E085B92FEF80E726
:1002900092E0215080409040E1F700C0000085E0EE
:1002A00085B92FEF80E792E0215080409040E1F740
:1002B00000C0000015B82FEF80E792E02150804089
:1002C0009040E1F700C00000089515B82FEF80E7D7
:1002D00092E0215080409040E1F700C0000081E0B2
:1002E00085B92FEF80E792E0215080409040E1F700
:1002F00000C0000015B82FEF80E792E02150804049
:100300009040E1F700C00000089582E085B915B87B
:100310000895EF92FF920F931F93CF93DF9320E006
:1003200030E04AE754E40E940C0220E034E244E763
:1003300056E40E9449030E94A502F894109280009E
:10034000C1E8D0E0188208E810E0F801E080F18010
:100350000E9474026E297F29F8017183608388816D
:1003600088608883EFE6F0E0808182608083888106
:10037000816088838881846088837894DF91CF91BD
:100380001F910F91FF90EF9008958FEF8AB984B974
:1003900040910401509105014C3F93E059079CF4B2
:1003A0004B5F5F4F509305014093040160E074E0A0
:1003B00086E090E00E943C018FE39CE90197F1F711
:1003C00000C00000E5CF2FEF83ED90E32150804087
:1003D0009040E1F700C000004091040150910501F8
:1003E000141615068CF4455051095093050140939D
:1003F000040160E074E086E090E00E943C018FE33D
:100400009CE90197F1F7E6CF9FEF23ED80E3915050
:1004100020408040E1F7D4CF0CD0EAC0E2D040F0D9
:10042000D9D030F021F45F3F19F0A2C051112BC197
:10043000CEC0EFD098F39923C9F35523B1F3951BA0
:10044000550BBB27AA2762177307840738F09F5FF5
:100450005F4F220F331F441FAA1FA9F333D00E2E64
:100460003AF0E0E830D091505040E695001CCAF7D1
:1004700029D0FE2F27D0660F771F881FBB1F261796
:1004800037074807AB07B0E809F0BB0B802DBF0169
:10049000FF2793585F4F2AF09E3F510568F068C0D0
:1004A000F2C05F3FECF3983EDCF386957795679555
:1004B000B795F7959F5FC9F7880F911D969587951A
:1004C00097F90895E1E0660F771F881FBB1F621739
:1004D00073078407BA0720F0621B730B840BBA0BF7
:1004E000EE1F88F7E095089504D06894B111CBC051
:1004F000089597D088F09F5790F0B92F9927B7515A
:10050000A0F0D1F0660F771F881F991F1AF0BA95D7
:10051000C9F712C0B13081F0B5D0B1E00895B2C0D2
:10052000672F782F8827B85F39F0B93FCCF38695CD
:1005300077956795B395D9F73EF49095809570952A
:1005400061957F4F8F4F9F4F089585D080F09F37E3
:1005500040F491110EF097C060E070E080E89FEBEE
:10056000089526F41B16611D711D811D07C021C051
:1005700097F99F6780E870E060E00895882371F440
:10058000772321F09850872B762F07C0662311F42C
:1005900099270DC09051862B70E060E02AF09A9563
:1005A000660F771F881FDAF7880F9695879597F95A
:1005B00008959F3F31F0915020F487957795679586
:1005C000B795880F911D9695879597F908959FEF98
:1005D00080EC089500240A941616170618060906DA
:1005E000089500240A9412161306140605060895A9
:1005F000092E0394000C11F4882352F0BB0F40F431
:10060000BF2B11F460FF04C06F5F7F4F8F4F9F4F70
:10061000089557FD9058440F551F59F05F3F71F0F2
:100620004795880F97FB991F61F09F3F79F0879559
:100630000895121613061406551FF2CF4695F1DFE2
:1006400008C0161617061806991FF1CF8695710572
:10065000610508940895E5DFA0F0BEE7B91788F4B6
:10066000BB279F3860F41616B11D672F782F882797
:10067000985FF7CF869577956795B11D93959639D5
:10068000C8F30895E894BB2766277727CB0197F92D
:1006900008950BD0ADCF9EDF28F0A3DF18F095238F
:1006A00009F066CF94CF1124EECFB3DFA0F3959F6E
:1006B000D1F3950F50E0551F629FF001729FBB2749
:1006C000F00DB11D639FAA27F00DB11DAA1F649FF5
:1006D0006627B00DA11D661F829F2227B00DA11DA8
:1006E000621F739FB00DA11D621F839FA00D611D2E
:1006F000221F749F3327A00D611D231F849F600D4F
:10070000211D822F762F6A2F11249F5750408AF087
:10071000E1F088234AF0EE0FFF1FBB1F661F771F13
:10072000881F91505040A9F79E3F510570F020CF8F
:10073000AACF5F3FECF3983EDCF3869577956795FB
:10074000B795F795E7959F5FC1F7FE2B880F911D31
:0C0750009695879597F90895F894FFCFCF
:04075C000000C8438E
:00000001FF
