:100000000C9434000C9451000C9451000C94510049
:100010000C9451000C9451000C9451000C9451001C
:100020000C9451000C9451000C9451000C9451000C
:100030000C9451000C9451000C9451000C945100FC
:100040000C9451000C9451000C9451000C945100EC
:100050000C9451000C9451000C9451000C945100DC
:100060000C9451000C94510011241FBECFEFD8E026
:10007000DEBFCDBF11E0A0E0B1E0ECEDF6E002C0E4
:1000800005900D92A430B107D9F721E0A4E0B1E0CA
:1000900001C01D92A630B207E1F70E94B5010C9491
:1000A0006C030C9400000E9434010E9434010E94F1
:1000B00034010E9434010E9434010E9434010E94E4
:1000C00034010E9455010C9475010E9434010E9474
:1000D00034010E9455010E9455010E9434010E9482
:1000E00055010E9455010E9455010C9475010E9412
:1000F00034010E9455010E9434010E9434010E9483
:1001000034010E9434010E9455010E9434010C9474
:1001100075010E9434010E9434010E9434010E9442
:1001200055010E9434010E9434010E9455010E9431
:1001300034010C9475010E9434010E9434010E9424
:1001400055010E9455010E9434010E9455010E94F0
:1001500034010E9434010C9475010E9434010E9404
:1001600034010E9434010E9455010E9455010E94F1
:1001700034010E9434010E9434010C9475010E94E4
:1001800034010E9434010E9434010E9434010E9413
:1001900055010E9434010E9434010E9434010C94E4
:1001A00075010E9434010E9434010E9455010E9491
:1001B00055010E9434010E9434010E9455010E94A1
:1001C00055010C9475010E9434010E9434010E9473
:1001D00034010E9434010E9434010E9434010E94C3
:1001E00034010E9434010C9475010E9434010E9474
:1001F00034010E9434010E9455010E9434010E9482
:1002000034010E9434010E9434010C9475010E9453
:1002100055010E9455010E9455010E9455010E94FE
:1002200055010E9455010E9455010E9455010C94F0
:100230007501F89484B5806884BD84B5816084BDFF
:1002400084B5826084BD85B5816085BD85B58460D7
:1002500085BD67BD789408959B01039721F4BA0189
:10026000C9010C941901089584E085B92FEF80E746
:1002700092E0215080409040E1F700C0000085E00E
:1002800085B92FEF80E792E0215080409040E1F760
:1002900000C0000015B82FEF80E792E021508040A9
:1002A0009040E1F700C00000089515B82FEF80E7F7
:1002B00092E0215080409040E1F700C0000081E0D2
:1002C00085B92FEF80E792E0215080409040E1F720
:1002D00000C0000015B82FEF80E792E02150804069
:1002E0009040E1F700C00000089582E085B915B89C
:1002F0000895EF92FF920F931F93CF93DF9320E027
:1003000030E04AE754E40E94CC0120E034E244E7C4
:1003100056E40E9409030E946502F894109280003E
:10032000C1E8D0E0188208E810E0F801E080F18030
:100330000E9434026E297F29F801718360838881CD
:1003400088608883EFE6F0E0808182608083888126
:10035000816088838881846088837894DF91CF91DD
:100360001F910F91FF90EF9008958FEF8AB984B994
:1003700040910401509105016FEF70E083E090E03F
:100380000E942C01809104019091050101969093A7
:10039000050180930401ECCF0CD0EAC0E2D040F01C
:1003A000D9D030F021F45F3F19F0A2C051112BC118
:1003B000CEC0EFD098F39923C9F35523B1F3951B21
:1003C000550BBB27AA2762177307840738F09F5F76
:1003D0005F4F220F331F441FAA1FA9F333D00E2EE5
:1003E0003AF0E0E830D091505040E695001CCAF752
:1003F00029D0FE2F27D0660F771F881FBB1F261717
:1004000037074807AB07B0E809F0BB0B802DBF01E9
:10041000FF2793585F4F2AF09E3F510568F068C050
:10042000F2C05F3FECF3983EDCF3869577956795D5
:10043000B795F7959F5FC9F7880F911D969587959A
:1004400097F90895E1E0660F771F881FBB1F6217B9
:1004500073078407BA0720F0621B730B840BBA0B77
:10046000EE1F88F7E095089504D06894B111CBC0D1
:10047000089597D088F09F5790F0B92F9927B751DA
:10048000A0F0D1F0660F771F881F991F1AF0BA9558
:10049000C9F712C0B13081F0B5D0B1E00895B2C053
:1004A000672F782F8827B85F39F0B93FCCF386954E
:1004B00077956795B395D9F73EF4909580957095AB
:1004C00061957F4F8F4F9F4F089585D080F09F3764
:1004D00040F491110EF097C060E070E080E89FEB6F
:1004E000089526F41B16611D711D811D07C021C0D2
:1004F00097F99F6780E870E060E00895882371F4C1
:10050000772321F09850872B762F07C0662311F4AC
:1005100099270DC09051862B70E060E02AF09A95E3
:10052000660F771F881FDAF7880F9695879597F9DA
:1005300008959F3F31F0915020F487957795679506
:10054000B795880F911D9695879597F908959FEF18
:1005500080EC089500240A9416161706180609065A
:10056000089500240A941216130614060506089529
:10057000092E0394000C11F4882352F0BB0F40F4B1
:10058000BF2B11F460FF04C06F5F7F4F8F4F9F4FF1
:10059000089557FD9058440F551F59F05F3F71F073
:1005A0004795880F97FB991F61F09F3F79F08795DA
:1005B0000895121613061406551FF2CF4695F1DF63
:1005C00008C0161617061806991FF1CF86957105F3
:1005D000610508940895E5DFA0F0BEE7B91788F437
:1005E000BB279F3860F41616B11D672F782F882718
:1005F000985FF7CF869577956795B11D9395963956
:10060000C8F30895E894BB2766277727CB0197F9AD
:1006100008950BD0ADCF9EDF28F0A3DF18F095230F
:1006200009F066CF94CF1124EECFB3DFA0F3959FEE
:10063000D1F3950F50E0551F629FF001729FBB27C9
:10064000F00DB11D639FAA27F00DB11DAA1F649F75
:100650006627B00DA11D661F829F2227B00DA11D28
:10066000621F739FB00DA11D621F839FA00D611DAE
:10067000221F749F3327A00D611D231F849F600DCF
:10068000211D822F762F6A2F11249F5750408AF008
:10069000E1F088234AF0EE0FFF1FBB1F661F771F94
:1006A000881F91505040A9F79E3F510570F020CF10
:1006B000AACF5F3FECF3983EDCF38695779567957C
:1006C000B795F795E7959F5FC1F7FE2B880F911DB2
:0C06D0009695879597F90895F894FFCF50
:0406DC000000C8430F
:00000001FF
